:100000000C9434000C9451000C9451000C94510049
:100010000C9451000C9451000C9451000C9451001C
:100020000C9451000C9451000C9451000C9451000C
:100030000C9451000C9451000C9451000C945100FC
:100040000C9451000C9451000C9451000C945100EC
:100050000C9451000C9451000C9451000C945100DC
:100060000C9451000C94510011241FBECFEFD8E026
:10007000DEBFCDBF11E0A0E0B1E0EAE1F8E002C0F0
:1000800005900D92A430B107D9F721E0A4E0B1E0CA
:1000900001C01D92A833B207E1F70E94DE030C9461
:1000A0000B040C9400005298539854985598569805
:1000B000579820985A9A5B9A5C9A5D9A5E9A5F9AD2
:1000C000289A219A2998229A2A98239A2B9A249A34
:1000D0002C98259A2D9808951CBC1DBC08950E944B
:1000E00053000E946C00F894089590E1699FB0015C
:1000F000112481110EC070632B9880E177FF0BC033
:100100002C9A2D9A2D98660F771F8150B9F72B9A4C
:100110000895706BF1CF2C98F4CF682F833908F0D5
:1001200062E96093030180E00C947500CF93C82FBF
:100130008C3C08F0CBECC0930201809101018C173C
:1001400031F06C2F81E00E947500C0930101CF91C6
:100150000895882311F0299A0895299808958823ED
:1001600011F02A9A08952A9808950F931F9389B140
:100170002091200190E0959587959595879580959C
:10018000909580FF28C1211106C081E08093200155
:1001900082E9809300018091030190910001891709
:1001A00008F023C18E5F981708F426C180930301DD
:1001B000809103010E948D0029B130E063E0359504
:1001C00027956A95E1F72095309521703327809126
:1001D0001F01821709F413C110921B0110921C0118
:1001E00010921D0110921E0120931F0189B12091D0
:1001F000370190E054E0959587955A95E1F7809501
:10020000909580FF20C1211104C081E080933701C7
:10021000299A89B190E045E0959587954A95E1F74F
:100220008095909580FF62C1809120019091190185
:10023000911114C1882341F0809100018E5F8339B0
:1002400008F00AC18093000181E0809319011092A7
:1002500018018091210190912201A0912301B09178
:1002600024018093330190933401A0933501B0931E
:10027000360189B190E036E0959587953A95E1F79A
:100280008095909580FF7FC180912001909117010A
:10029000911133C1882341F080910001823208F42A
:1002A0002AC182508093000181E08093170110924F
:1002B00016018091210190912201A0912301B0911A
:1002C000240180932F0190933001A0933101B093CA
:1002D000320183B18095817020911501281709F4AE
:1002E00057C1109211011092120110921301109235
:1002F00014018093150180911001882309F4A6C18F
:1003000081E08093250180910F0181115FC180916F
:1003100002018F5F8C3C08F057C1809302018091ED
:1003200002010E94960081E080930F0180912101DB
:1003300090912201A0912301B09124018093270183
:1003400090932801A0932901B0932A0189B190E0EC
:10035000880F892F881F990B21E0822720910E0199
:10036000281709F478C110920A0110920B0110921B
:100370000C0110920D0180930E01809109018823D8
:1003800009F4C2C181E080932601809108018111A6
:1003900080C180910201843308F479C18150809337
:1003A0000201809102010E94960081E08093080181
:1003B0008091210190912201A0912301B09124010B
:1003C00080932B0190932C01A0932D01B0932E01CB
:1003D0001F910F910895222321F01092200180E2B5
:1003E000D8CE80E20E948D00D6CE981708F0E4CED9
:1003F0008250891708F0DACE90930301D9CE40914C
:100400001B0150911C0160911D0170911E014F5FF5
:100410005F4F6F4F7F4F40931B0150931C016093C0
:100420001D0170931E01403951406105710509F0AD
:10043000DDCE90911A01981709F4D8CE80931A0155
:100440000E94AF00D3CE222309F4E3CE10923701ED
:1004500080E00E94A900DDCE82E9F4CE882309F471
:1004600008CF8091180140E757E160E070E08823F1
:1004700021F04CE652E060E070E080912101909123
:100480002201A0912301B091240100913301109128
:1004900034012091350130913601801B910BA20B64
:1004A000B30B84179507A607B70708F4E2CE80912F
:1004B00000018E5F80930001409121015091220143
:1004C00060912301709124014093330150933401D2
:1004D000609335017093360191E090931801833950
:1004E00008F4C7CE82E980930001C3CE10921901AF
:1004F00010921801BECE80E2D5CE882309F4E9CE51
:100500008091160140E757E160E070E0882321F018
:100510004CE652E060E070E0809121019091220170
:10052000A0912301B091240100912F01109130017D
:100530002091310130913201801B910BA20BB30B42
:1005400084179507A607B70708F4C3CE8091210149
:1005500090912201A0912301B091240180932F0159
:1005600090933001A0933101B093320181E08093E8
:10057000160180910001823220F0825080930001A8
:10058000A8CE80E2FBCF1092170110921601A1CEE7
:100590008091110190911201A0911301B091140169
:1005A0000196A11DB11D8093110190931201A0939A
:1005B0001301B093140180399140A105B10508F4ED
:1005C0009ACE2093100197CE8BECA7CE809121017B
:1005D00090912201A0912301B091240180912101E9
:1005E00090912201A0912301B09124014091270113
:1005F000509128016091290170912A01841B950B6B
:10060000A60BB70B0F97A105B10508F49FCE8091FB
:1006100002018F5F809302014091210150912201DC
:100620006091230170912401409327015093280188
:100630006093290170932A018C3C18F08BEC809315
:100640000201809102010E94960080CE10920F015B
:10065000109225017BCE80910A0190910B01A0910F
:100660000C01B0910D010196A11DB11D80930A01ED
:1006700090930B01A0930C01B0930D018039914030
:10068000A105B10508F479CE2093090176CE83E364
:1006900086CE8091210190912201A0912301B091F9
:1006A00024018091210190912201A0912301B09118
:1006B000240140912B0150912C0160912D017091EA
:1006C0002E01841B950BA60BB70B0F97A105B10547
:1006D00008F47ECE8091210190912201A091230106
:1006E000B091240180932B0190932C01A0932D01B4
:1006F000B0932E0180910201843320F081508093C9
:10070000020150C083E3FBCF109208011092260132
:100710008091250181115CCE80912101909122016F
:10072000A0912301B0912401409104015091050151
:100730006091060170910701841B950BA60BB70B06
:100740008897A105B10508F443CE809121019091CD
:100750002201A0912301B091240180930401909380
:100760000501A0930601B093070180910201813831
:1007700070F090E8980F903120F4913031F480E8D7
:10078000BECF92959F70891BBACF91E0FCCF87FDB9
:100790001FCE20E8922F981B903150F4913061F4D5
:1007A00020930201809102011F910F910C949600F9
:1007B00092959F70890FA3CF91E0FCCF2FEF84E338
:1007C0009CE0215080409040E1F700C000000E9472
:1007D0006F00809103010E948D00809102010E94B0
:1007E00096000E94B50025E82A95F1F70000809157
:1007F000210190912201A0912301B0912401019641
:10080000A11DB11D8093210190932201A09323018A
:0A081000B0932401E6CFF894FFCF67
:04081A0020FF8092A9
:00000001FF
