:100000000C9434000C9451000C9451000C94510049
:100010000C9451000C9451000C9451000C9451001C
:100020000C9451000C9451000C9451000C9451000C
:100030000C9451000C9451000C9451000C945100FC
:100040000C9451000C9451000C9451000C945100EC
:100050000C9451000C9451000C9451000C945100DC
:100060000C9451000C94510011241FBECFEFD8E026
:10007000DEBFCDBF11E0A0E0B1E0E8E9F6E002C0EC
:1000800005900D92A430B107D9F721E0A4E0B1E0CA
:1000900001C01D92A032B207E1F70E941D030C942B
:1000A0004A030C94000052985398549855985698C7
:1000B000579820985A9A5B9A5C9A5D9A5E9A5F9AD2
:1000C000289A219A2998229A2A98239A2B9A249A34
:1000D0002C98259A2D9808951CBC1DBC08950E944B
:1000E00053000E946C00F894089590E1699FB0015C
:1000F0001124811112C070632B9880E177FF0FC02B
:100100002C9A2D9A92E09A95F1F700C02D98660FDF
:10011000771F815099F72B9A0895706BEDCF2C982B
:10012000F0CF682F813908F060E96093030180E027
:100130000C947500682F8C3C08F06BEC6093020106
:1001400081E00C947500882311F0299A089529986C
:100150000895882311F02A9A08952A9808950F93F4
:100160001F9389B12091100190E095958795959501
:1001700087958095909580FFF5C0211106C081E09C
:100180008093100180E98093000180910301909198
:100190000001891708F0F0C08E5F981708F4F3C0CB
:1001A00080930301809103010E94910089B190E046
:1001B00063E0959587956A95E1F7809590958170B4
:1001C000992720910F01281709F4E0C010920B0124
:1001D00010920C0110920D0110920E0180930F01EC
:1001E00089B120911F0190E054E0959587955A952B
:1001F000E1F78095909580FFF6C0211104C081E061
:1002000080931F01299A89B190E045E095958795E3
:100210004A95E1F78095909580FF38C18091100153
:10022000909109019111EAC0882341F08091000169
:100230008E5F813908F0E0C08093000181E08093F7
:100240000901109208018091110190911201A09171
:100250001301B091140180931B0190931C01A09392
:100260001D01B0931E0189B190E036E09595879508
:100270003A95E1F78095909580FF55C180911001E6
:1002800090910701911109C1882341F080910001EB
:10029000823208F400C182508093000181E0809393
:1002A0000701109206018091110190911201A09115
:1002B0001301B09114018093170190931801A0933A
:1002C0001901B0931A01189959C181E08093150161
:1002D000809102018E5F9091050191112BC18C3CA0
:1002E00008F026C180930201809102010E949A00C9
:1002F00081E0809305018091110190911201A091FC
:100300001301B091140189B190E0880F892F881FE3
:10031000990B892B09F05DC181E0809316018091D2
:10032000020190910401911130C1853308F42BC171
:10033000825080930201809102010E949A0081E024
:10034000809304018091110190911201A0911301F9
:10035000B091140180911601882309F43EC11F91C8
:100360000F910895222321F01092100180E20BCF0B
:1003700080E20E94910009CF981708F017CF8250B1
:10038000891708F00DCF909303010CCF80910B01DA
:1003900090910C01A0910D01B0910E010196A11D4B
:1003A000B11D80930B0190930C01A0930D01B093AC
:1003B0000E0180399140A105B10509F011CF80915E
:1003C0000A01821709F40CCF20930A01213009F0A9
:1003D00007CF81E090910101911180E080930101AC
:1003E0000E94A900FDCE222309F40DCF10921F0117
:1003F00080E00E94A30007CF80E91ECF882309F484
:1004000032CF8091080140E757E160E070E0882337
:1004100021F04CE652E060E070E080911101909193
:100420001201A0911301B091140100911B011091D0
:100430001C0120911D0130911E01801B910BA20B0C
:10044000B30B84179507A607B70708F40CCF809164
:1004500000018E5F809300014091110150911201C3
:10046000609113017091140140931B0150931C0182
:1004700060931D0170931E0191E0909308018139F2
:1004800008F4F1CE80E980930001EDCE10920901CD
:1004900010920801E8CE80E2FFCE882309F413CF42
:1004A0008091060140E757E160E070E0882321F089
:1004B0004CE652E060E070E08091110190911201F1
:1004C000A0911301B091140100911701109118012E
:1004D0002091190130911A01801B910BA20BB30BD3
:1004E00084179507A607B70708F4EDCE8091110190
:1004F00090911201A0911301B09114018093170102
:1005000090931801A0931901B0931A0181E0809390
:10051000060180910001823220F082508093000118
:10052000D2CE80E2FBCF1092070110920601CBCE13
:100530008BECD8CE409111015091120160911301C2
:1005400070911401409111015091120160911301B9
:100550007091140180930201409111015091120198
:1005600060911301709114018C3C18F08BEC809316
:100570000201809102010E949A00C5CE10920501ED
:1005800010921501C0CE83E3D4CE40911101509159
:100590001201609113017091140140911101509169
:1005A0001201609113017091140140911101509159
:1005B00012016091130170911401853340F0825053
:1005C00080930201809102010E949A00C3CE83E3CE
:1005D000F7CF10920401109216018091150181113C
:1005E000BECE80910201813880F090E8980F903162
:1005F00030F4913041F480E88093020111C092956B
:100600009F70891BF9CF91E0FCCF87FDA8CE20E831
:10061000922F981B903158F4913069F42093020185
:100620006091020181E01F910F910C9475009295E9
:100630009F70890FE1CF91E0FCCF2FEF84E39CE026
:10064000215080409040E1F700C000000E946F0000
:10065000809103010E949100809102010E949A0002
:100660000E94AF0025E82A95F1F700008091110162
:1006700090911201A0911301B09114010196A11D56
:10068000B11D8093110190931201A0931301B093B7
:080690001401E6CFF894FFCF3E
:04069800200180902D
:00000001FF
