:100000000C9434000C9451000C9451000C94510049
:100010000C9451000C9451000C9451000C9451001C
:100020000C9451000C9451000C9451000C9451000C
:100030000C9451000C9451000C9451000C945100FC
:100040000C9451000C9451000C9451000C945100EC
:100050000C9451000C9451000C9451000C945100DC
:100060000C9451000C94510011241FBECFEFD8E026
:10007000DEBFCDBF11E0A0E0B1E0ECE2F8E002C0ED
:1000800005900D92A630B107D9F721E0A6E0B1E0C6
:1000900001C01D92AA33B207E1F70E94E7030C9456
:1000A00014040C94000052985398549855985698FC
:1000B000579820985A9A5B9A5C9A5D9A5E9A5F9AD2
:1000C000289A219A2998229A2A98239A2B9A249A34
:1000D0002C98259A2D9808951CBC1DBC08950E944B
:1000E00053000E946C00F894089590E1699FB0015C
:1000F000112481110EC070632B9880E177FF0BC033
:100100002C9A2D9A2D98660F771F8150B9F72B9A4C
:100110000895706BF1CF2C98F4CF682F813908F0D7
:1001200060E96093040180E00C947500CF93C82FC0
:100130008C3C08F0CBECC0930301809102018C173A
:1001400031F06C2F81E00E947500C0930201CF91C5
:100150000895882311F0299A0895299808958823ED
:1001600011F02A9A08952A9808950F931F9389B140
:100170002091220190E0959587959595879580959A
:10018000909580FF28C1211106C081E08093220153
:1001900080E980930001809104019091000189170A
:1001A00008F023C18E5F981708F426C180930401DC
:1001B000809104010E948D0089B190E063E09595E3
:1001C00087956A95E1F780959095817099272091A0
:1001D0002101281709F413C110921D0110921E016C
:1001E00010921F01109220018093210189B120916A
:1001F000390190E054E0959587955A95E1F78095FF
:10020000909580FF29C1211104C081E080933901BC
:10021000299A89B190E045E0959587954A95E1F74F
:100220008095909580FF6BC18091220190911B0178
:1002300091111DC1882341F0809100018E5F8139A9
:1002400008F013C18093000181E080931B0110929C
:100250001A018091230190912401A0912501B09170
:1002600026018093350190933601A0933701B09316
:10027000380189B190E036E0959587953A95E1F798
:100280008095909580FF88C18091220190911901FD
:1002900091113CC1882341F080910001823208F421
:1002A00033C182508093000181E080931901109244
:1002B00018018091230190912401A0912501B09112
:1002C00026018093310190933201A0933301B093C2
:1002D000340183B18095817020911701281709F4AA
:1002E00060C1109213011092140110921501109226
:1002F00016018093170180911201882309F4AFC180
:1003000081E08093270180911101811168C1809162
:1003100003018E5F8C3C08F060C1809303018091E3
:1003200003010E94960081E08093110180912301D6
:1003300090912401A0912501B0912601809329017B
:1003400090932A01A0932B01B0932C0189B190E0E6
:10035000880F892F881F990B21E082272091100197
:10036000281709F481C110920C0110920D0110920E
:100370000E0110920F018093100180910B018823D0
:1003800009F4CBC181E08093280180910A01811199
:1003900089C180910301853308F482C18250809322
:1003A0000301809103010E94960081E080930A017D
:1003B0008091230190912401A0912501B091260103
:1003C00080932D0190932E01A0932F01B0933001C3
:1003D0001F910F910895222321F01092220180E2B3
:1003E000D8CE80E20E948D00D6CE981708F0E4CED9
:1003F0008250891708F0DACE90930401D9CE80910B
:100400001D0190911E01A0911F01B0912001019644
:10041000A11DB11D80931D0190931E01A0931F018A
:10042000B093200180399140A105B10509F0DECEDD
:1004300080911C01821709F4D9CE20931C01213030
:1004400009F0D4CE81E090910101911180E0809378
:1004500001010E94AF00CACE222309F4DACE109225
:10046000390180E00E94A900D4CE80E9EBCE882338
:1004700009F4FFCE80911A0140E757E160E070E097
:10048000882321F04CE652E060E070E08091230187
:1004900090912401A0912501B09126010091350190
:1004A000109136012091370130913801801B910B5A
:1004B000A20BB30B84179507A607B70708F4D9CE8C
:1004C000809100018E5F8093000140912301509143
:1004D00024016091250170912601409335015093CC
:1004E0003601609337017093380191E090931A01BF
:1004F000813908F4BECE80E980930001BACE109213
:100500001B0110921A01B5CE80E2CCCE882309F4EB
:10051000E0CE8091180140E757E160E070E0882369
:1005200021F04CE652E060E070E080912301909170
:100530002401A0912501B091260100913101109173
:1005400032012091330130913401801B910BA20BB9
:10055000B30B84179507A607B70708F4BACE8091A6
:10056000230190912401A0912501B091260180934F
:10057000310190933201A0933301B093340181E0B3
:100580008093180180910001823220F08250809384
:1005900000019FCE80E2FBCF10921901109218014A
:1005A00098CE8091130190911401A0911501B09102
:1005B00016010196A11DB11D8093130190931401A2
:1005C000A0931501B093160180399140A105B105A2
:1005D00008F491CE209312018ECE8BEC9ECE8091AA
:1005E000230190912401A0912501B09126018091D1
:1005F000230190912401A0912501B0912601409101
:10060000290150912A0160912B0170912C01841BCA
:10061000950BA60BB70B4497A105B10508F496CE30
:10062000809103018E5F80930301409123015091DB
:100630002401609125017091260140932901509376
:100640002A0160932B0170932C018C3C18F08BECE9
:1006500080930301809103010E94960077CE10924F
:1006600011011092270172CE80910C0190910D0121
:10067000A0910E01B0910F010196A11DB11D8093B3
:100680000C0190930D01A0930E01B0930F018039DE
:100690009140A105B10508F470CE20930B016DCEF9
:1006A00083E37DCE8091230190912401A0912501C7
:1006B000B09126018091230190912401A091250100
:1006C000B091260140912D0150912E0160912F0192
:1006D00070913001841B950BA60BB70B4497A105B5
:1006E000B10508F475CE8091230190912401A09169
:1006F0002501B091260180932D0190932E01A093A6
:100700002F01B093300180910301853320F0825096
:100710008093030150C083E3FBCF10920A01109233
:10072000280180912701811153CE8091230190915E
:100730002401A0912501B09126014091060150911C
:1007400007016091080170910901841B950BA60BAC
:10075000B70B8897A105B10508F43ACE8091230123
:1007600090912401A0912501B0912601809306016A
:1007700090930701A0930801B093090180910301B0
:10078000813870F090E8980F903120F4913031F476
:1007900080E8BECF92959F70891BBACF91E0FCCFC5
:1007A00087FD16CE20E8922F981B903150F491309F
:1007B00061F420930301809103011F910F910C9428
:1007C000960092959F70890FA3CF91E0FCCF2FEFF9
:1007D00084E39CE0215080409040E1F700C000009D
:1007E0000E946F00809104010E948D00809103019E
:1007F0000E9496000E94B50025E82A95F1F70000B6
:100800008091230190912401A0912501B0912601AE
:100810000196A11DB11D8093230190932401A09303
:0C0820002501B0932601E6CFF894FFCF2D
:06082C002001FF80900096
:00000001FF
